S01300006F75722070726F6A6563742E73726563A4
S11300000C942A000C9447000C9447000C9447006D
S11300100C9447000C9447000C9447000C94470040
S11300200C9447000C9447000C9447000C94470030
S11300300C9447000C9447000C9447000C94470020
S11300400C9415010C9447000C9447000C94470041
S11300500C94470011241FBECFE5D8E0DEBFCDBF0E
S113006010E0A0E6B0E0E0ECFBE002C005900D92E9
S1130070AC3DB107D9F720E0ACEDB0E001C01D9272
S1130080A43FB207E1F70E9449000C94DE050C94EA
S113009000000E94190280E895E20E94FA020E9480
S11300A0E2010E94E7028FEF81BB82B3877F82BBAC
S11300B082B3886082BB20B381E090E002C0880FE5
S11300C0991F2A95E2F78095909592B3892382BB74
S11300D01ABA48E650E065E081E00E944D0240E72C
S11300E050E060E082E00E944D022FEF89E698E143
S11300F0215080409040E1F700C000000E9465025A
S113010040E850E060E081E00E944D0246E850E0A3
S11301106BE081E00E944D024CE850E066E081E033
S11301200E944D022FEF80E792E0215080409040E2
S1130130E1F700C0000082B38E7F82BB82B381608E
S113014082BB82B38D7F82BB82B3826082BBC0E0FC
S113015080E090E00E94ED02BC01990F880B990B9E
S11301600E945B046093E4007093E5008093E600D2
S11301709093E70081E090E00E94ED02BC01990FAA
S1130180880B990B0E945B046093E0007093E1007C
S11301908093E2009093E300C11102C0839B06C0E8
S11301A0849B04C0CF5FC03509F4C0E067E081E000
S11301B00E94690280E990E00E94370267E081E0D2
S11301C00E9469020C2F10E0C8010E94760284E9A3
S11301D090E00E9410036091EC007091ED0080911A
S11301E0EE009091EF000E942304CB010E942603AD
S11301F08BE990E00E9410036091E8007091E9009F
S11302008091EA009091EB000E942304CB010E94AC
S1130210260385EA90E00E941003C8010E94260389
S11302208DE090E00E940C0393CF1F920F920FB6C3
S11302300F9211242F933F934F935F936F937F9368
S11302408F939F93AF93BF93EF93FF932091640099
S11302503091650040916600509167006091E40020
S11302607091E5008091E6009091E7000E94B1034F
S113027020916000309161004091620050916300D0
S11302800E94E7046093DC007093DD008093DE003D
S11302909093DF0020E030E040E05FE30E944403FD
S11302A020E030E048EC52E40E94E7046093EC0064
S11302B07093ED008093EE009093EF0060E081E096
S11302C00E94690280E990E00E94370260E081E0C8
S11302D00E9469026091EC007091ED008091EE0043
S11302E09091EF000E942304CB010E94760220919A
S11302F06400309165004091660050916700609100
S1130300E0007091E1008091E2009091E3000E948E
S1130310B1032091600030916100409162005091DE
S113032063000E94E7046093F0007093F1008093EF
S1130330F2009093F30020E030E040E05FE30E949D
S1130340440320E030E048EC52E40E94E704609368
S1130350E8007093E9008093EA009093EB006CE06E
S113036081E00E94690280E990E00E9437026CE01B
S113037081E00E9469026091E8007091E900809137
S1130380EA009091EB000E942304CB010E947602C4
S11303902FEF80E792E0215080409040E1F700C0C9
S11303A00000FF91EF91BF91AF919F918F917F9149
S11303B06F915F914F913F912F910F900FBE0F90CE
S11303C01F90189584B38F6084BB85B38F6085BB01
S11303D084B38F7084BB85B3806F85BB089588BB5D
S11303E082B38F7982BB82B3806882BB82E08A95B4
S11303F0F1F700C082B38F7782BB8FE697E1019754
S1130400F1F700C00000089588BB82B38F7B82BBE4
S113041082B3806A82BB82E08A95F1F700C082B31E
S11304208F7782BB8FEC97E00197F1F700C0000053
S1130430089581B3806E81BB8FEF87BB8FE39CE906
S11304400197F1F700C0000088E30E94EF018CE0FF
S11304500E94EF0186E00E94EF0181E00E94EF011B
S113046080E80E94EF018FE00E94EF0108950F934E
S11304701F93CF93DF938C01C0E0D0E003C00E94B0
S113048004022196F801EC0FFD1F80818111F7CF42
S1130490DF91CF911F910F910895CF93DF93EA01DC
S11304A0813031F4862F8F7080680E94EF0107C07D
S11304B0823029F4862F8F70806C0E94EF01CE0168
S11304C00E943702DF91CF91089581E00E94EF01ED
S11304D00895882329F0813021F490E4960F01C017
S11304E0962F892F80680E94EF010895EF92FF9262
S11304F00F931F93CF93DF93CDB7DEB7A0970FB6BB
S1130500F894DEBF0FBECDBF99233CF4919581953D
S11305109109EE24E394F12C02C0E12CF12C00E0CB
S113052010E001C0890198012F5F3F4F6AE070E03D
S11305300E945405E1E0F0E0EC0FFD1FE00FF11F15
S1130540805D8083862F972F181619065CF3EF2899
S113055059F0E1E0F0E0EC0FFD1FE20FF31F2DE294
S1130560208398012E5F3F4FE1E0F0E0EC0FFD1F88
S1130570E20FF31F1082C901019720E030E013C09D
S1130580A1E0B0E0AC0FBD1FA20FB31F4C91E1E09E
S1130590F0E0EC0FFD1FE80FF91F50815C934083DE
S11305A02F5F3F4F01972817390754F3CE01019667
S11305B00E943702A0960FB6F894DEBF0FBECDBFDF
S11305C0DF91CF911F910F91FF90EF90089580E4F8
S11305D087B98EE886B978940895877097B1987F23
S11305E0892B87B986B1806486B93699FECF84B1E8
S11305F095B108959C0140E050E060E271EA87E023
S113060090E00E9468052150310930BD29B988E184
S11306108AB986E880BD08958CB95D9BFECF0895A4
S11306200F931F93CF93DF938C01C0E0D0E003C0FE
S11306300E940C032196F801EC0FFD1F80818111AB
S1130640F7CFDF91CF911F910F910895CF93DF934F
S1130650CDB7DEB72A970FB6F894DEBF0FBECDBF75
S11306604AE050E0BE016F5F7F4F0E949E05CE01BD
S113067001960E9410032A960FB6F894DEBF0FBEAF
S1130680CDBFDF91CF9108955058BB27AA270E9470
S11306905C030C94AD040E949F0438F00E94A604ED
S11306A020F039F49F3F19F426F40C949C040EF4C2
S11306B0E095E7FB0C949604E92F0E94BE0458F3DE
S11306C0BA17620773078407950720F079F4A6F533
S11306D00C94E0040EF4E0950B2EBA2FA02D0B0120
S11306E0B90190010C01CA01A0011124FF27591B73
S11306F099F0593F50F4503E68F11A16F040A22F79
S1130700232F342F4427585FF3CF469537952795E9
S1130710A795F0405395C9F77EF41F16BA0B620BE8
S1130720730B840BBAF09150A1F0FF0FBB1F661F2F
S1130730771F881FC2F70EC0BA0F621F731F841F72
S113074048F4879577956795B795F7959E3F08F098
S1130750B0CF9395880F08F09927EE0F979587955A
S113076008950E94C5030C94AD040E94A60458F099
S11307700E949F0440F029F45F3F29F00C949604F2
S113078051110C94E1040C949C040E94BE0468F37F
S11307909923B1F3552391F3951B550BBB27AA2736
S11307A062177307840738F09F5F5F4F220F331F70
S11307B0441FAA1FA9F335D00E2E3AF0E0E832D038
S11307C091505040E695001CCAF72BD0FE2F29D03B
S11307D0660F771F881FBB1F261737074807AB070D
S11307E0B0E809F0BB0B802DBF01FF2793585F4F82
S11307F03AF09E3F510578F00C9496040C94E10471
S11308005F3FE4F3983ED4F3869577956795B79563
S1130810F7959F5FC9F7880F911D9695879597F96E
S11308200895E1E0660F771F881FBB1F62177307E7
S11308308407BA0720F0621B730B840BBA0BEE1FFC
S113084088F7E09508950E942A046894B1110C94E5
S1130850E10408950E94C60488F09F5798F0B92FC8
S11308609927B751B0F0E1F0660F771F881F991FE1
S11308701AF0BA95C9F714C0B13091F00E94E0049F
S1130880B1E008950C94E004672F782F8827B85FAF
S113089039F0B93FCCF3869577956795B395D9F739
S11308A03EF490958095709561957F4F8F4F9F4F43
S11308B00895E89409C097FB3EF49095809570954F
S11308C061957F4F8F4F9F4F9923A9F0F92F96E998
S11308D0BB279395F695879577956795B795F1110D
S11308E0F8CFFAF4BB0F11F460FF1BC06F5F7F4FAA
S11308F08F4F9F4F16C0882311F096E911C07723BC
S113090021F09EE8872F762F05C0662371F096E8C4
S1130910862F70E060E02AF09A95660F771F881F93
S1130920DAF7880F9695879597F9089597F99F6751
S113093080E870E060E008959FEF80EC0895002463
S11309400A941616170618060906089500240A9430
S113095012161306140605060895092E0394000CB6
S113096011F4882352F0BB0F40F4BF2B11F460FF45
S113097004C06F5F7F4F8F4F9F4F089557FD90586E
S1130980440F551F59F05F3F71F04795880F97FB4F
S1130990991F61F09F3F79F0879508951216130609
S11309A01406551FF2CF4695F1DF08C01616170638
S11309B01806991FF1CF869571056105089408956D
S11309C0E894BB2766277727CB0197F908950E94FF
S11309D0FA040C94AD040E949F0438F00E94A6040B
S11309E020F0952311F00C9496040C949C0411248B
S11309F00C94E1040E94BE0470F3959FC1F3950F1B
S1130A0050E0551F629FF001729FBB27F00DB11D8E
S1130A10639FAA27F00DB11DAA1F649F6627B00D1E
S1130A20A11D661F829F2227B00DA11D621F739F07
S1130A30B00DA11D621F839FA00D611D221F749F15
S1130A403327A00D611D231F849F600D211D822F5C
S1130A50762F6A2F11249F5750409AF0F1F0882383
S1130A604AF0EE0FFF1FBB1F661F771F881F9150B0
S1130A705040A9F79E3F510580F00C9496040C94C5
S1130A80E1045F3FE4F3983ED4F386957795679548
S1130A90B795F795E7959F5FC1F7FE2B880F911DDA
S1130AA09695879597F9089597FB072E16F4009469
S1130AB007D077FD09D00E948A0507FC05D03EF4D3
S1130AC0909581959F4F0895709561957F4F0895F6
S1130AD0A1E21A2EAA1BBB1BFD010DC0AA1FBB1F3E
S1130AE0EE1FFF1FA217B307E407F50720F0A21BB0
S1130AF0B30BE40BF50B661F771F881F991F1A941D
S1130B0069F760957095809590959B01AC01BD0146
S1130B10CF010895AA1BBB1B51E107C0AA1FBB1F2D
S1130B20A617B70710F0A61BB70B881F991F5A9575
S1130B30A9F780959095BC01CD01089545325105E2
S1130B4020F4423010F00C94A905FB011082CB0173
S1130B500895BB274A3031F4992322F4BDE29095DD
S1130B6081959F4F0C94B505BB27FB015527AA27F8
S1130B70880F991FAA1FA41710F0A41B8395505126
S1130B80B9F7A05DAA3308F0A95DA193009779F79E
S1130B90B111B1931192CB010C94CE05DC01FC018F
S1130BA0672F71917723E1F7329704C07C916D939D
S1130BB070836291AE17BF07C8F30895F894FFCF0E
S1130BC00000A0400000804457454C434F4D450071
S1130BD044722E41736872616620526D64616E00C6
S1130BE054656D70310054656D70320042504D0093
S1130BF020202000746D70313A2000202020746D74
S1130C0070323A200020202042504D3A2000454EB8
S1130C105445522050415357574F524400747279EF
S1130C202000203A200046414C5345205041535364
S10F0C300054525545205041535300001D
S9030000FC
